{
    "_format": "hh-sol-artifact-1",
    "contractName": "ChainedVampires",
    "sourceName": "contracts/ChainedVampires.sol",
    "abi": [
        {
            "inputs": [
                {
                    "internalType": "string",
                    "name": "_initBaseURI",
                    "type": "string"
                },
                {
                    "internalType": "address",
                    "name": "_feeCollector",
                    "type": "address"
                },
                {
                    "internalType": "string",
                    "name": "_initHashBase",
                    "type": "string"
                }
            ],
            "stateMutability": "nonpayable",
            "type": "constructor"
        },
        {
            "anonymous": false,
            "inputs": [
                {
                    "indexed": true,
                    "internalType": "address",
                    "name": "owner",
                    "type": "address"
                },
                {
                    "indexed": true,
                    "internalType": "address",
                    "name": "approved",
                    "type": "address"
                },
                {
                    "indexed": true,
                    "internalType": "uint256",
                    "name": "tokenId",
                    "type": "uint256"
                }
            ],
            "name": "Approval",
            "type": "event"
        },
        {
            "anonymous": false,
            "inputs": [
                {
                    "indexed": true,
                    "internalType": "address",
                    "name": "owner",
                    "type": "address"
                },
                {
                    "indexed": true,
                    "internalType": "address",
                    "name": "operator",
                    "type": "address"
                },
                {
                    "indexed": false,
                    "internalType": "bool",
                    "name": "approved",
                    "type": "bool"
                }
            ],
            "name": "ApprovalForAll",
            "type": "event"
        },
        {
            "anonymous": false,
            "inputs": [
                {
                    "indexed": true,
                    "internalType": "uint256",
                    "name": "tokenId",
                    "type": "uint256"
                },
                {
                    "indexed": false,
                    "internalType": "uint256",
                    "name": "price",
                    "type": "uint256"
                },
                {
                    "indexed": false,
                    "internalType": "enum ChainedVampires.SaleState",
                    "name": "state",
                    "type": "uint8"
                }
            ],
            "name": "MarketItemCreated",
            "type": "event"
        },
        {
            "anonymous": false,
            "inputs": [
                {
                    "indexed": true,
                    "internalType": "address",
                    "name": "previousOwner",
                    "type": "address"
                },
                {
                    "indexed": true,
                    "internalType": "address",
                    "name": "newOwner",
                    "type": "address"
                }
            ],
            "name": "OwnershipTransferred",
            "type": "event"
        },
        {
            "anonymous": false,
            "inputs": [
                {
                    "indexed": true,
                    "internalType": "uint256",
                    "name": "tokenId",
                    "type": "uint256"
                },
                {
                    "indexed": false,
                    "internalType": "uint256",
                    "name": "price",
                    "type": "uint256"
                }
            ],
            "name": "Sold",
            "type": "event"
        },
        {
            "anonymous": false,
            "inputs": [
                {
                    "indexed": true,
                    "internalType": "address",
                    "name": "from",
                    "type": "address"
                },
                {
                    "indexed": true,
                    "internalType": "address",
                    "name": "to",
                    "type": "address"
                },
                {
                    "indexed": true,
                    "internalType": "uint256",
                    "name": "tokenId",
                    "type": "uint256"
                }
            ],
            "name": "Transfer",
            "type": "event"
        },
        {
            "inputs": [],
            "name": "MAX_VAMPIRES",
            "outputs": [
                {
                    "internalType": "uint256",
                    "name": "",
                    "type": "uint256"
                }
            ],
            "stateMutability": "view",
            "type": "function"
        },
        {
            "inputs": [
                {
                    "internalType": "uint256",
                    "name": "",
                    "type": "uint256"
                }
            ],
            "name": "MarketItem",
            "outputs": [
                {
                    "internalType": "uint256",
                    "name": "price",
                    "type": "uint256"
                },
                {
                    "internalType": "enum ChainedVampires.SaleState",
                    "name": "state",
                    "type": "uint8"
                }
            ],
            "stateMutability": "view",
            "type": "function"
        },
        {
            "inputs": [
                {
                    "internalType": "address",
                    "name": "to",
                    "type": "address"
                },
                {
                    "internalType": "uint256",
                    "name": "tokenId",
                    "type": "uint256"
                }
            ],
            "name": "approve",
            "outputs": [],
            "stateMutability": "nonpayable",
            "type": "function"
        },
        {
            "inputs": [
                {
                    "internalType": "address",
                    "name": "owner",
                    "type": "address"
                }
            ],
            "name": "balanceOf",
            "outputs": [
                {
                    "internalType": "uint256",
                    "name": "",
                    "type": "uint256"
                }
            ],
            "stateMutability": "view",
            "type": "function"
        },
        {
            "inputs": [],
            "name": "baseExtension",
            "outputs": [
                {
                    "internalType": "string",
                    "name": "",
                    "type": "string"
                }
            ],
            "stateMutability": "view",
            "type": "function"
        },
        {
            "inputs": [],
            "name": "baseURI",
            "outputs": [
                {
                    "internalType": "string",
                    "name": "",
                    "type": "string"
                }
            ],
            "stateMutability": "view",
            "type": "function"
        },
        {
            "inputs": [
                {
                    "internalType": "uint256",
                    "name": "_tokenId",
                    "type": "uint256"
                }
            ],
            "name": "buyItem",
            "outputs": [],
            "stateMutability": "payable",
            "type": "function"
        },
        {
            "inputs": [
                {
                    "internalType": "uint256",
                    "name": "_tokenId",
                    "type": "uint256"
                }
            ],
            "name": "cancelSale",
            "outputs": [],
            "stateMutability": "nonpayable",
            "type": "function"
        },
        {
            "inputs": [
                {
                    "internalType": "uint256",
                    "name": "_tokenId",
                    "type": "uint256"
                }
            ],
            "name": "claimReward",
            "outputs": [],
            "stateMutability": "nonpayable",
            "type": "function"
        },
        {
            "inputs": [],
            "name": "claimRewardAll",
            "outputs": [],
            "stateMutability": "nonpayable",
            "type": "function"
        },
        {
            "inputs": [],
            "name": "currentDividendPerHolder",
            "outputs": [
                {
                    "internalType": "uint256",
                    "name": "",
                    "type": "uint256"
                }
            ],
            "stateMutability": "view",
            "type": "function"
        },
        {
            "inputs": [
                {
                    "internalType": "uint256",
                    "name": "tokenId",
                    "type": "uint256"
                }
            ],
            "name": "getApproved",
            "outputs": [
                {
                    "internalType": "address",
                    "name": "",
                    "type": "address"
                }
            ],
            "stateMutability": "view",
            "type": "function"
        },
        {
            "inputs": [],
            "name": "getCurrentTokenId",
            "outputs": [
                {
                    "internalType": "uint256",
                    "name": "",
                    "type": "uint256"
                }
            ],
            "stateMutability": "view",
            "type": "function"
        },
        {
            "inputs": [
                {
                    "internalType": "uint256",
                    "name": "_tokenId",
                    "type": "uint256"
                }
            ],
            "name": "getEarnedAmount",
            "outputs": [
                {
                    "internalType": "uint256",
                    "name": "",
                    "type": "uint256"
                }
            ],
            "stateMutability": "view",
            "type": "function"
        },
        {
            "inputs": [],
            "name": "getEarnedAmountAll",
            "outputs": [
                {
                    "internalType": "uint256",
                    "name": "",
                    "type": "uint256"
                }
            ],
            "stateMutability": "view",
            "type": "function"
        },
        {
            "inputs": [
                {
                    "internalType": "uint256",
                    "name": "_tokenId",
                    "type": "uint256"
                }
            ],
            "name": "getOriginalMinter",
            "outputs": [
                {
                    "internalType": "address",
                    "name": "",
                    "type": "address"
                }
            ],
            "stateMutability": "view",
            "type": "function"
        },
        {
            "inputs": [
                {
                    "internalType": "address",
                    "name": "_to",
                    "type": "address"
                },
                {
                    "internalType": "uint256",
                    "name": "_amount",
                    "type": "uint256"
                }
            ],
            "name": "giveAway",
            "outputs": [],
            "stateMutability": "nonpayable",
            "type": "function"
        },
        {
            "inputs": [
                {
                    "internalType": "address",
                    "name": "owner",
                    "type": "address"
                },
                {
                    "internalType": "address",
                    "name": "operator",
                    "type": "address"
                }
            ],
            "name": "isApprovedForAll",
            "outputs": [
                {
                    "internalType": "bool",
                    "name": "",
                    "type": "bool"
                }
            ],
            "stateMutability": "view",
            "type": "function"
        },
        {
            "inputs": [
                {
                    "internalType": "uint256",
                    "name": "",
                    "type": "uint256"
                }
            ],
            "name": "lastDividendAt",
            "outputs": [
                {
                    "internalType": "uint256",
                    "name": "",
                    "type": "uint256"
                }
            ],
            "stateMutability": "view",
            "type": "function"
        },
        {
            "inputs": [],
            "name": "mintPrice",
            "outputs": [
                {
                    "internalType": "uint256",
                    "name": "",
                    "type": "uint256"
                }
            ],
            "stateMutability": "view",
            "type": "function"
        },
        {
            "inputs": [
                {
                    "internalType": "uint256",
                    "name": "",
                    "type": "uint256"
                }
            ],
            "name": "minter",
            "outputs": [
                {
                    "internalType": "address",
                    "name": "",
                    "type": "address"
                }
            ],
            "stateMutability": "view",
            "type": "function"
        },
        {
            "inputs": [],
            "name": "name",
            "outputs": [
                {
                    "internalType": "string",
                    "name": "",
                    "type": "string"
                }
            ],
            "stateMutability": "view",
            "type": "function"
        },
        {
            "inputs": [],
            "name": "owner",
            "outputs": [
                {
                    "internalType": "address",
                    "name": "",
                    "type": "address"
                }
            ],
            "stateMutability": "view",
            "type": "function"
        },
        {
            "inputs": [
                {
                    "internalType": "uint256",
                    "name": "tokenId",
                    "type": "uint256"
                }
            ],
            "name": "ownerOf",
            "outputs": [
                {
                    "internalType": "address",
                    "name": "",
                    "type": "address"
                }
            ],
            "stateMutability": "view",
            "type": "function"
        },
        {
            "inputs": [
                {
                    "internalType": "bool",
                    "name": "_state",
                    "type": "bool"
                }
            ],
            "name": "pause",
            "outputs": [],
            "stateMutability": "nonpayable",
            "type": "function"
        },
        {
            "inputs": [],
            "name": "paused",
            "outputs": [
                {
                    "internalType": "bool",
                    "name": "",
                    "type": "bool"
                }
            ],
            "stateMutability": "view",
            "type": "function"
        },
        {
            "inputs": [
                {
                    "internalType": "uint256",
                    "name": "_tokenId",
                    "type": "uint256"
                },
                {
                    "internalType": "uint256",
                    "name": "_price",
                    "type": "uint256"
                }
            ],
            "name": "putToSale",
            "outputs": [],
            "stateMutability": "nonpayable",
            "type": "function"
        },
        {
            "inputs": [],
            "name": "reflectToOwners",
            "outputs": [],
            "stateMutability": "payable",
            "type": "function"
        },
        {
            "inputs": [],
            "name": "renounceOwnership",
            "outputs": [],
            "stateMutability": "nonpayable",
            "type": "function"
        },
        {
            "inputs": [
                {
                    "internalType": "address",
                    "name": "from",
                    "type": "address"
                },
                {
                    "internalType": "address",
                    "name": "to",
                    "type": "address"
                },
                {
                    "internalType": "uint256",
                    "name": "tokenId",
                    "type": "uint256"
                }
            ],
            "name": "safeTransferFrom",
            "outputs": [],
            "stateMutability": "nonpayable",
            "type": "function"
        },
        {
            "inputs": [
                {
                    "internalType": "address",
                    "name": "from",
                    "type": "address"
                },
                {
                    "internalType": "address",
                    "name": "to",
                    "type": "address"
                },
                {
                    "internalType": "uint256",
                    "name": "tokenId",
                    "type": "uint256"
                },
                {
                    "internalType": "bytes",
                    "name": "_data",
                    "type": "bytes"
                }
            ],
            "name": "safeTransferFrom",
            "outputs": [],
            "stateMutability": "nonpayable",
            "type": "function"
        },
        {
            "inputs": [
                {
                    "internalType": "address",
                    "name": "operator",
                    "type": "address"
                },
                {
                    "internalType": "bool",
                    "name": "approved",
                    "type": "bool"
                }
            ],
            "name": "setApprovalForAll",
            "outputs": [],
            "stateMutability": "nonpayable",
            "type": "function"
        },
        {
            "inputs": [
                {
                    "internalType": "string",
                    "name": "_newBaseURI",
                    "type": "string"
                }
            ],
            "name": "setBaseURI",
            "outputs": [],
            "stateMutability": "nonpayable",
            "type": "function"
        },
        {
            "inputs": [
                {
                    "internalType": "string",
                    "name": "_newHashBase",
                    "type": "string"
                }
            ],
            "name": "setHashBase",
            "outputs": [],
            "stateMutability": "nonpayable",
            "type": "function"
        },
        {
            "inputs": [
                {
                    "internalType": "uint256",
                    "name": "_newPrice",
                    "type": "uint256"
                }
            ],
            "name": "setPrice",
            "outputs": [],
            "stateMutability": "nonpayable",
            "type": "function"
        },
        {
            "inputs": [
                {
                    "internalType": "uint256",
                    "name": "_amount",
                    "type": "uint256"
                }
            ],
            "name": "summonVampire",
            "outputs": [],
            "stateMutability": "payable",
            "type": "function"
        },
        {
            "inputs": [
                {
                    "internalType": "bytes4",
                    "name": "interfaceId",
                    "type": "bytes4"
                }
            ],
            "name": "supportsInterface",
            "outputs": [
                {
                    "internalType": "bool",
                    "name": "",
                    "type": "bool"
                }
            ],
            "stateMutability": "view",
            "type": "function"
        },
        {
            "inputs": [],
            "name": "symbol",
            "outputs": [
                {
                    "internalType": "string",
                    "name": "",
                    "type": "string"
                }
            ],
            "stateMutability": "view",
            "type": "function"
        },
        {
            "inputs": [
                {
                    "internalType": "uint256",
                    "name": "index",
                    "type": "uint256"
                }
            ],
            "name": "tokenByIndex",
            "outputs": [
                {
                    "internalType": "uint256",
                    "name": "",
                    "type": "uint256"
                }
            ],
            "stateMutability": "view",
            "type": "function"
        },
        {
            "inputs": [
                {
                    "internalType": "address",
                    "name": "owner",
                    "type": "address"
                },
                {
                    "internalType": "uint256",
                    "name": "index",
                    "type": "uint256"
                }
            ],
            "name": "tokenOfOwnerByIndex",
            "outputs": [
                {
                    "internalType": "uint256",
                    "name": "",
                    "type": "uint256"
                }
            ],
            "stateMutability": "view",
            "type": "function"
        },
        {
            "inputs": [
                {
                    "internalType": "uint256",
                    "name": "tokenId",
                    "type": "uint256"
                }
            ],
            "name": "tokenURI",
            "outputs": [
                {
                    "internalType": "string",
                    "name": "",
                    "type": "string"
                }
            ],
            "stateMutability": "view",
            "type": "function"
        },
        {
            "inputs": [],
            "name": "totalDistributedRewaords",
            "outputs": [
                {
                    "internalType": "uint256",
                    "name": "",
                    "type": "uint256"
                }
            ],
            "stateMutability": "view",
            "type": "function"
        },
        {
            "inputs": [],
            "name": "totalSupply",
            "outputs": [
                {
                    "internalType": "uint256",
                    "name": "",
                    "type": "uint256"
                }
            ],
            "stateMutability": "view",
            "type": "function"
        },
        {
            "inputs": [
                {
                    "internalType": "address",
                    "name": "from",
                    "type": "address"
                },
                {
                    "internalType": "address",
                    "name": "to",
                    "type": "address"
                },
                {
                    "internalType": "uint256",
                    "name": "tokenId",
                    "type": "uint256"
                }
            ],
            "name": "transferFrom",
            "outputs": [],
            "stateMutability": "nonpayable",
            "type": "function"
        },
        {
            "inputs": [
                {
                    "internalType": "address",
                    "name": "newOwner",
                    "type": "address"
                }
            ],
            "name": "transferOwnership",
            "outputs": [],
            "stateMutability": "nonpayable",
            "type": "function"
        },
        {
            "inputs": [
                {
                    "internalType": "address",
                    "name": "_owner",
                    "type": "address"
                }
            ],
            "name": "walletOfOwner",
            "outputs": [
                {
                    "internalType": "uint256[]",
                    "name": "",
                    "type": "uint256[]"
                }
            ],
            "stateMutability": "view",
            "type": "function"
        },
        {
            "inputs": [],
            "name": "withdraw",
            "outputs": [],
            "stateMutability": "nonpayable",
            "type": "function"
        }
    ],
    "bytecode": "0x6046600c5560c06040526005608081905264173539b7b760d91b60a09081526200002d91600f91906200025c565b506010805460ff191690556702c68af0bb140000601155600060138190556014553480156200005b57600080fd5b506040516200349f3803806200349f8339810160408190526200007e91620003b5565b604080518082018252600f81526e436861696e656456616d706972657360881b60208083019182528351808501909452600584526404356414d560dc1b908401528151919291620000d2916000916200025c565b508051620000e89060019060208401906200025c565b50505062000105620000ff6200014360201b60201c565b62000147565b620001108362000199565b6200011b8162000201565b50600d80546001600160a01b0319166001600160a01b0392909216919091179055506200048f565b3390565b600a80546001600160a01b038381166001600160a01b0319831681179093556040519116919082907f8be0079c531659141344cd1fd0a4f28419497f9722a3daafe3b4186f6b6457e090600090a35050565b600a546001600160a01b03163314620001e85760405162461bcd60e51b815260206004820181905260248201526000805160206200347f83398151915260448201526064015b60405180910390fd5b8051620001fd90600e9060208401906200025c565b5050565b600a546001600160a01b031633146200024c5760405162461bcd60e51b815260206004820181905260248201526000805160206200347f8339815191526044820152606401620001df565b8051620001fd9060129060208401905b8280546200026a906200043c565b90600052602060002090601f0160209004810192826200028e5760008555620002d9565b82601f10620002a957805160ff1916838001178555620002d9565b82800160010185558215620002d9579182015b82811115620002d9578251825591602001919060010190620002bc565b50620002e7929150620002eb565b5090565b5b80821115620002e75760008155600101620002ec565b600082601f83011262000313578081fd5b81516001600160401b038082111562000330576200033062000479565b604051601f8301601f19908116603f011681019082821181831017156200035b576200035b62000479565b8160405283815260209250868385880101111562000377578485fd5b8491505b838210156200039a57858201830151818301840152908201906200037b565b83821115620003ab57848385830101525b9695505050505050565b600080600060608486031215620003ca578283fd5b83516001600160401b0380821115620003e1578485fd5b620003ef8783880162000302565b602087015190955091506001600160a01b03821682146200040e578384fd5b60408601519193508082111562000423578283fd5b50620004328682870162000302565b9150509250925092565b6002810460018216806200045157607f821691505b602082108114156200047357634e487b7160e01b600052602260045260246000fd5b50919050565b634e487b7160e01b600052604160045260246000fd5b612fe0806200049f6000396000f3fe6080604052600436106102885760003560e01c806370a082311161015a578063b88d4fde116100c1578063d20688571161007a578063d206885714610799578063e7fb74c7146107c6578063e985e9c5146107d9578063eb79d49314610822578063f29cf10414610842578063f2fde38b1461085757610288565b8063b88d4fde146106ee578063ba3d76731461070e578063bd94b00514610724578063c668286214610744578063c87b56dd14610759578063ca8001441461077957610288565b80639b71c34e116101135780639b71c34e1461060f578063a22cb46514610622578063a4559f2614610642578063ab977c2a14610678578063ac8d856c14610698578063ae169a50146106ce57610288565b806370a0823114610571578063715018a6146105915780638da5cb5b146105a657806391b7f5ed146105c457806395d89b41146105e4578063972dc166146105f957610288565b80633ccfd60b116101fe5780635c975abb116101b75780635c975abb146104e15780636352211e146104fb578063637830ca1461051b5780636817c76c146105305780636bcff1f6146105465780636c0360eb1461055c57610288565b80633ccfd60b1461042a57806342842e0e1461043f578063438b63001461045f5780634f6ccce71461048c57806355f804b3146104ac57806356189236146104cc57610288565b8063095ea7b311610250578063095ea7b31461034657806314bf40fa1461036657806318160ddd146103ab57806319fd43e9146103ca57806323b872dd146103ea5780632f745c591461040a57610288565b806301ffc9a71461028d57806302329a29146102c2578063047d5e80146102e457806306fdde03146102ec578063081812fc1461030e575b600080fd5b34801561029957600080fd5b506102ad6102a8366004612adf565b610877565b60405190151581526020015b60405180910390f35b3480156102ce57600080fd5b506102e26102dd366004612ac5565b61088a565b005b6102e26108d0565b3480156102f857600080fd5b506103016108db565b6040516102b99190612d3d565b34801561031a57600080fd5b5061032e610329366004612b5d565b61096d565b6040516001600160a01b0390911681526020016102b9565b34801561035257600080fd5b506102e2610361366004612a9c565b610a02565b34801561037257600080fd5b5061039d610381366004612b5d565b6017602052600090815260409020805460019091015460ff1682565b6040516102b9929190612e28565b3480156103b757600080fd5b506008545b6040519081526020016102b9565b3480156103d657600080fd5b506103bc6103e5366004612b5d565b610b18565b3480156103f657600080fd5b506102e26104053660046129bf565b610b34565b34801561041657600080fd5b506103bc610425366004612a9c565b610b65565b34801561043657600080fd5b506102e2610bfb565b34801561044b57600080fd5b506102e261045a3660046129bf565b610c7d565b34801561046b57600080fd5b5061047f61047a366004612973565b610c98565b6040516102b99190612cf9565b34801561049857600080fd5b506103bc6104a7366004612b5d565b610d56565b3480156104b857600080fd5b506102e26104c7366004612b17565b610df7565b3480156104d857600080fd5b506103bc610e38565b3480156104ed57600080fd5b506010546102ad9060ff1681565b34801561050757600080fd5b5061032e610516366004612b5d565b610e48565b34801561052757600080fd5b506102e2610ebf565b34801561053c57600080fd5b506103bc60115481565b34801561055257600080fd5b506103bc60145481565b34801561056857600080fd5b50610301610f51565b34801561057d57600080fd5b506103bc61058c366004612973565b610fdf565b34801561059d57600080fd5b506102e2611066565b3480156105b257600080fd5b50600a546001600160a01b031661032e565b3480156105d057600080fd5b506102e26105df366004612b5d565b61109a565b3480156105f057600080fd5b506103016110c9565b34801561060557600080fd5b506103bc60135481565b6102e261061d366004612b5d565b6110d8565b34801561062e57600080fd5b506102e261063d366004612a73565b6113a1565b34801561064e57600080fd5b5061032e61065d366004612b5d565b6000908152601660205260409020546001600160a01b031690565b34801561068457600080fd5b506102e2610693366004612b75565b611473565b3480156106a457600080fd5b5061032e6106b3366004612b5d565b6016602052600090815260409020546001600160a01b031681565b3480156106da57600080fd5b506102e26106e9366004612b5d565b611542565b3480156106fa57600080fd5b506102e26107093660046129fa565b611694565b34801561071a57600080fd5b506103bc611b5881565b34801561073057600080fd5b506102e261073f366004612b5d565b6116cc565b34801561075057600080fd5b50610301611713565b34801561076557600080fd5b50610301610774366004612b5d565b611720565b34801561078557600080fd5b506102e2610794366004612a9c565b611838565b3480156107a557600080fd5b506103bc6107b4366004612b5d565b60156020526000908152604090205481565b6102e26107d4366004612b5d565b61197a565b3480156107e557600080fd5b506102ad6107f436600461298d565b6001600160a01b03918216600090815260056020908152604080832093909416825291909152205460ff1690565b34801561082e57600080fd5b506102e261083d366004612b17565b611bce565b34801561084e57600080fd5b506103bc611c0b565b34801561086357600080fd5b506102e2610872366004612973565b611c63565b600061088282611cfb565b90505b919050565b600a546001600160a01b031633146108bd5760405162461bcd60e51b81526004016108b490612da2565b60405180910390fd5b6010805460ff1916911515919091179055565b6108d934611d20565b565b6060600080546108ea90612ee8565b80601f016020809104026020016040519081016040528092919081815260200182805461091690612ee8565b80156109635780601f1061093857610100808354040283529160200191610963565b820191906000526020600020905b81548152906001019060200180831161094657829003601f168201915b5050505050905090565b6000818152600260205260408120546001600160a01b03166109e65760405162461bcd60e51b815260206004820152602c60248201527f4552433732313a20617070726f76656420717565727920666f72206e6f6e657860448201526b34b9ba32b73a103a37b5b2b760a11b60648201526084016108b4565b506000908152600460205260409020546001600160a01b031690565b6000610a0d82610e48565b9050806001600160a01b0316836001600160a01b03161415610a7b5760405162461bcd60e51b815260206004820152602160248201527f4552433732313a20617070726f76616c20746f2063757272656e74206f776e656044820152603960f91b60648201526084016108b4565b336001600160a01b0382161480610a975750610a9781336107f4565b610b095760405162461bcd60e51b815260206004820152603860248201527f4552433732313a20617070726f76652063616c6c6572206973206e6f74206f7760448201527f6e6572206e6f7220617070726f76656420666f7220616c6c000000000000000060648201526084016108b4565b610b138383611d5d565b505050565b6000818152601560205260408120546014546108829190612ea5565b610b3e3382611dcb565b610b5a5760405162461bcd60e51b81526004016108b490612dd7565b610b13838383611ebe565b6000610b7083610fdf565b8210610bd25760405162461bcd60e51b815260206004820152602b60248201527f455243373231456e756d657261626c653a206f776e657220696e646578206f7560448201526a74206f6620626f756e647360a81b60648201526084016108b4565b506001600160a01b03919091166000908152600660209081526040808320938352929052205490565b600a546001600160a01b03163314610c255760405162461bcd60e51b81526004016108b490612da2565b604051600090339047908381818185875af1925050503d8060008114610c67576040519150601f19603f3d011682016040523d82523d6000602084013e610c6c565b606091505b5050905080610c7a57600080fd5b50565b610b1383838360405180602001604052806000815250611694565b60606000610ca583610fdf565b905060008167ffffffffffffffff811115610cd057634e487b7160e01b600052604160045260246000fd5b604051908082528060200260200182016040528015610cf9578160200160208202803683370190505b50905060005b82811015610d4e57610d118582610b65565b828281518110610d3157634e487b7160e01b600052603260045260246000fd5b602090810291909101015280610d4681612f23565b915050610cff565b509392505050565b6000610d6160085490565b8210610dc45760405162461bcd60e51b815260206004820152602c60248201527f455243373231456e756d657261626c653a20676c6f62616c20696e646578206f60448201526b7574206f6620626f756e647360a01b60648201526084016108b4565b60088281548110610de557634e487b7160e01b600052603260045260246000fd5b90600052602060002001549050919050565b600a546001600160a01b03163314610e215760405162461bcd60e51b81526004016108b490612da2565b8051610e3490600e90602084019061283d565b5050565b6000610e43600b5490565b905090565b6000818152600260205260408120546001600160a01b0316806108825760405162461bcd60e51b815260206004820152602960248201527f4552433732313a206f776e657220717565727920666f72206e6f6e657869737460448201526832b73a103a37b5b2b760b91b60648201526084016108b4565b6000610eca33610fdf565b90506000805b82811015610f23576000610ee43383610b65565b9050610eef81610b18565b610ef99084612e5a565b60145460009283526015602052604090922091909155915080610f1b81612f23565b915050610ed0565b50604051339082156108fc029083906000818181858888f19350505050158015610b13573d6000803e3d6000fd5b600e8054610f5e90612ee8565b80601f0160208091040260200160405190810160405280929190818152602001828054610f8a90612ee8565b8015610fd75780601f10610fac57610100808354040283529160200191610fd7565b820191906000526020600020905b815481529060010190602001808311610fba57829003601f168201915b505050505081565b60006001600160a01b03821661104a5760405162461bcd60e51b815260206004820152602a60248201527f4552433732313a2062616c616e636520717565727920666f7220746865207a65604482015269726f206164647265737360b01b60648201526084016108b4565b506001600160a01b031660009081526003602052604090205490565b600a546001600160a01b031633146110905760405162461bcd60e51b81526004016108b490612da2565b6108d96000612069565b600a546001600160a01b031633146110c45760405162461bcd60e51b81526004016108b490612da2565b601155565b6060600180546108ea90612ee8565b60105460ff16156111225760405162461bcd60e51b815260206004820152601460248201527353616c65206d757374206265206163746976652160601b60448201526064016108b4565b600081116111725760405162461bcd60e51b815260206004820181905260248201527f416d6f756e74206d75737420626520626967676572207468616e207a65726f2160448201526064016108b4565b601581106111d35760405162461bcd60e51b815260206004820152602860248201527f4d61782032302076616d70732063616e206265206d696e74656420696e206f6e60448201526765206f726465722160c01b60648201526084016108b4565b806011546111e19190612e86565b3410156112265760405162461bcd60e51b8152602060048201526013602482015272496e73756666696369656e742066756e64732160681b60448201526064016108b4565b600081601414156112435761123c826006612e5a565b905061127f565b600f82106112565761123c826004612e5a565b600a82106112695761123c826002612e5a565b6005821061127c5761123c826001612e5a565b50805b600c5461128e90611b58612ea5565b81611298600b5490565b6112a29190612e5a565b11156112f05760405162461bcd60e51b815260206004820181905260248201527f416d6f756e7420657863656564732072656d61696e696e6720737570706c792160448201526064016108b4565b60005b81811015610b135761130d33611308600b5490565b6120bb565b336016600061131b600b5490565b815260200190815260200160002060006101000a8154816001600160a01b0302191690836001600160a01b031602179055506014546015600061135d600b5490565b815260208101919091526040016000205561137c600b80546001019055565b8281101561138f5761138f6011546120d5565b8061139981612f23565b9150506112f3565b6001600160a01b0382163314156113fa5760405162461bcd60e51b815260206004820152601960248201527f4552433732313a20617070726f766520746f2063616c6c65720000000000000060448201526064016108b4565b3360008181526005602090815260408083206001600160a01b0387168085529252909120805460ff1916841515179055906001600160a01b03167f17307eab39ab6107e8899845ad3d59bd9653f200f220920489ca2b5937696c3183604051611467911515815260200190565b60405180910390a35050565b61147c82610e48565b6001600160a01b0316336001600160a01b03161461149957600080fd5b600081116114e95760405162461bcd60e51b815260206004820152601a60248201527f53616c652070726963652063616e6e6f74206265207a65726f2100000000000060448201526064016108b4565b600082815260176020526040808220838155600101805460ff191690555183917f1bd3c387686e35c3c53b88fb3785a53c83a6ebfd5d14cf6a5db22a2e2a869f2991611536918591612e28565b60405180910390a25050565b3361154c82610e48565b6001600160a01b031614806115715750336115668261096d565b6001600160a01b0316145b6115c75760405162461bcd60e51b815260206004820152602160248201527f4f6e6c7920746865206f776e65722063616e20636c61696d20726577617264736044820152601760f91b60648201526084016108b4565b6115d081610b18565b61162f5760405162461bcd60e51b815260206004820152602a60248201527f5468657265206973206e6f2072657761726420746f20636c61696d20666f72206044820152693a3434b9903a37b5b2b760b11b60648201526084016108b4565b600061163a82610b18565b905061164582610e48565b6001600160a01b03166108fc829081150290604051600060405180830381858888f1935050505015801561167d573d6000803e3d6000fd5b505060145460009182526015602052604090912055565b61169e3383611dcb565b6116ba5760405162461bcd60e51b81526004016108b490612dd7565b6116c684848484612141565b50505050565b6116d581610e48565b6001600160a01b0316336001600160a01b0316146116f257600080fd5b6000908152601760205260408120908155600101805460ff19166002179055565b600f8054610f5e90612ee8565b6000818152600260205260409020546060906001600160a01b031661179f5760405162461bcd60e51b815260206004820152602f60248201527f4552433732314d657461646174613a2055524920717565727920666f72206e6f60448201526e3732bc34b9ba32b73a103a37b5b2b760891b60648201526084016108b4565b60006117a9612174565b9050600060126117b885612183565b6040516020016117c9929190612c97565b6040516020818303038152906040528051906020012060001c905060008251116118025760405180602001604052806000815250611830565b8161180c82612183565b600f60405160200161182093929190612c5a565b6040516020818303038152906040525b949350505050565b600a546001600160a01b031633146118625760405162461bcd60e51b81526004016108b490612da2565b600c548111156118c55760405162461bcd60e51b815260206004820152602860248201527f416d6f756e74206578636565647320726573657276656420676976656177617960448201526720737570706c792160c01b60648201526084016108b4565b60005b8181101561195e576118dd83611308600b5490565b82601660006118eb600b5490565b815260200190815260200160002060006101000a8154816001600160a01b0302191690836001600160a01b031602179055506014546015600061192d600b5490565b815260208101919091526040016000205561194c600b80546001019055565b8061195681612f23565b9150506118c8565b5080600c60008282546119719190612ea5565b90915550505050565b600061198582610e48565b6000838152601760205260409020549091503410156119df5760405162461bcd60e51b815260206004820152601660248201527543616e2774206275792e20507269636520697373756560501b60448201526064016108b4565b60008281526017602052604081206001015460ff166002811115611a1357634e487b7160e01b600052602160045260246000fd5b14611a575760405162461bcd60e51b81526020600482015260146024820152734974656d206973206e6f7420666f722073616c6560601b60448201526064016108b4565b6000611a623461229e565b90506000611a6f346122bf565b90506000611a7c346122cf565b9050600081611a8b8486612e5a565b611a959190612e5a565b611a9f9034612ea5565b6000878152601660205260408082205490519293506001600160a01b03169185156108fc0291869190818181858888f19350505050158015611ae5573d6000803e3d6000fd5b50600d546040516001600160a01b039091169085156108fc029086906000818181858888f19350505050158015611b20573d6000803e3d6000fd5b50611b2a82611d20565b6040516001600160a01b0386169082156108fc029083906000818181858888f19350505050158015611b60573d6000803e3d6000fd5b50611b6c853388611ebe565b60008681526017602052604090206001908101805460ff191682800217905550857f7ea63cabf285309a7f2750def3e745dd81fc85e39926c5b47f0bd45938e1a41234604051611bbe91815260200190565b60405180910390a2505050505050565b600a546001600160a01b03163314611bf85760405162461bcd60e51b81526004016108b490612da2565b8051610e3490601290602084019061283d565b600080611c1733610fdf565b90506000805b82811015611c5c576000611c313383610b65565b9050611c3c81610b18565b611c469084612e5a565b9250508080611c5490612f23565b915050611c1d565b5091505090565b600a546001600160a01b03163314611c8d5760405162461bcd60e51b81526004016108b490612da2565b6001600160a01b038116611cf25760405162461bcd60e51b815260206004820152602660248201527f4f776e61626c653a206e6577206f776e657220697320746865207a65726f206160448201526564647265737360d01b60648201526084016108b4565b610c7a81612069565b60006001600160e01b0319821663780e9d6360e01b14806108825750610882826122dd565b8060136000828254611d329190612e5a565b9091555050600854611d449082612e72565b60146000828254611d559190612e5a565b909155505050565b600081815260046020526040902080546001600160a01b0319166001600160a01b0384169081179091558190611d9282610e48565b6001600160a01b03167f8c5be1e5ebec7d5bd14f71427d1e84f3dd0314c0f7b2291e5b200ac8c7c3b92560405160405180910390a45050565b6000818152600260205260408120546001600160a01b0316611e445760405162461bcd60e51b815260206004820152602c60248201527f4552433732313a206f70657261746f7220717565727920666f72206e6f6e657860448201526b34b9ba32b73a103a37b5b2b760a11b60648201526084016108b4565b6000611e4f83610e48565b9050806001600160a01b0316846001600160a01b03161480611e8a5750836001600160a01b0316611e7f8461096d565b6001600160a01b0316145b8061183057506001600160a01b0380821660009081526005602090815260408083209388168352929052205460ff16611830565b826001600160a01b0316611ed182610e48565b6001600160a01b031614611f395760405162461bcd60e51b815260206004820152602960248201527f4552433732313a207472616e73666572206f6620746f6b656e2074686174206960448201526839903737ba1037bbb760b91b60648201526084016108b4565b6001600160a01b038216611f9b5760405162461bcd60e51b8152602060048201526024808201527f4552433732313a207472616e7366657220746f20746865207a65726f206164646044820152637265737360e01b60648201526084016108b4565b611fa683838361232d565b611fb1600082611d5d565b6001600160a01b0383166000908152600360205260408120805460019290611fda908490612ea5565b90915550506001600160a01b0382166000908152600360205260408120805460019290612008908490612e5a565b909155505060008181526002602052604080822080546001600160a01b0319166001600160a01b0386811691821790925591518493918716917fddf252ad1be2c89b69c2b068fc378daa952ba7f163c4a11628f55a4df523b3ef91a4505050565b600a80546001600160a01b038381166001600160a01b0319831681179093556040519116919082907f8be0079c531659141344cd1fd0a4f28419497f9722a3daafe3b4186f6b6457e090600090a35050565b610e34828260405180602001604052806000815250612338565b600060646120e483600c612e86565b6120ee9190612e72565b905060006120fc8284612ea5565b600d546040519192506001600160a01b03169082156108fc029083906000818181858888f19350505050158015612137573d6000803e3d6000fd5b50610b1382611d20565b61214c848484611ebe565b6121588484848461236b565b6116c65760405162461bcd60e51b81526004016108b490612d50565b6060600e80546108ea90612ee8565b6060816121a857506040805180820190915260018152600360fc1b6020820152610885565b8160005b81156121d257806121bc81612f23565b91506121cb9050600a83612e72565b91506121ac565b60008167ffffffffffffffff8111156121fb57634e487b7160e01b600052604160045260246000fd5b6040519080825280601f01601f191660200182016040528015612225576020820181803683370190505b5090505b84156118305761223a600183612ea5565b9150612247600a86612f3e565b612252906030612e5a565b60f81b81838151811061227557634e487b7160e01b600052603260045260246000fd5b60200101906001600160f81b031916908160001a905350612297600a86612e72565b9450612229565b60008060646122ae846003612e86565b6122b89190612e72565b9392505050565b60008060646122ae846002612e86565b6000806122b8601984612e72565b60006001600160e01b031982166380ac58cd60e01b148061230e57506001600160e01b03198216635b5e139f60e01b145b8061088257506301ffc9a760e01b6001600160e01b0319831614610882565b610b13838383612478565b6123428383612535565b61234f600084848461236b565b610b135760405162461bcd60e51b81526004016108b490612d50565b60006001600160a01b0384163b1561246d57604051630a85bd0160e11b81526001600160a01b0385169063150b7a02906123af903390899088908890600401612cbc565b602060405180830381600087803b1580156123c957600080fd5b505af19250505080156123f9575060408051601f3d908101601f191682019092526123f691810190612afb565b60015b612453573d808015612427576040519150601f19603f3d011682016040523d82523d6000602084013e61242c565b606091505b50805161244b5760405162461bcd60e51b81526004016108b490612d50565b805181602001fd5b6001600160e01b031916630a85bd0160e11b149050611830565b506001949350505050565b6001600160a01b0383166124d3576124ce81600880546000838152600960205260408120829055600182018355919091527ff3f7a9fe364faab93b216da50a3214154f22a0a2b415b23a84c8169e8b636ee30155565b6124f6565b816001600160a01b0316836001600160a01b0316146124f6576124f68382612683565b6001600160a01b0382166125125761250d81612720565b610b13565b826001600160a01b0316826001600160a01b031614610b1357610b1382826127f9565b6001600160a01b03821661258b5760405162461bcd60e51b815260206004820181905260248201527f4552433732313a206d696e7420746f20746865207a65726f206164647265737360448201526064016108b4565b6000818152600260205260409020546001600160a01b0316156125f05760405162461bcd60e51b815260206004820152601c60248201527f4552433732313a20746f6b656e20616c7265616479206d696e7465640000000060448201526064016108b4565b6125fc6000838361232d565b6001600160a01b0382166000908152600360205260408120805460019290612625908490612e5a565b909155505060008181526002602052604080822080546001600160a01b0319166001600160a01b03861690811790915590518392907fddf252ad1be2c89b69c2b068fc378daa952ba7f163c4a11628f55a4df523b3ef908290a45050565b6000600161269084610fdf565b61269a9190612ea5565b6000838152600760205260409020549091508082146126ed576001600160a01b03841660009081526006602090815260408083208584528252808320548484528184208190558352600790915290208190555b5060009182526007602090815260408084208490556001600160a01b039094168352600681528383209183525290812055565b60085460009061273290600190612ea5565b6000838152600960205260408120546008805493945090928490811061276857634e487b7160e01b600052603260045260246000fd5b90600052602060002001549050806008838154811061279757634e487b7160e01b600052603260045260246000fd5b60009182526020808320909101929092558281526009909152604080822084905585825281205560088054806127dd57634e487b7160e01b600052603160045260246000fd5b6001900381819060005260206000200160009055905550505050565b600061280483610fdf565b6001600160a01b039093166000908152600660209081526040808320868452825280832085905593825260079052919091209190915550565b82805461284990612ee8565b90600052602060002090601f01602090048101928261286b57600085556128b1565b82601f1061288457805160ff19168380011785556128b1565b828001600101855582156128b1579182015b828111156128b1578251825591602001919060010190612896565b506128bd9291506128c1565b5090565b5b808211156128bd57600081556001016128c2565b600067ffffffffffffffff808411156128f1576128f1612f7e565b604051601f8501601f19908116603f0116810190828211818310171561291957612919612f7e565b8160405280935085815286868601111561293257600080fd5b858560208301376000602087830101525050509392505050565b80356001600160a01b038116811461088557600080fd5b8035801515811461088557600080fd5b600060208284031215612984578081fd5b6122b88261294c565b6000806040838503121561299f578081fd5b6129a88361294c565b91506129b66020840161294c565b90509250929050565b6000806000606084860312156129d3578081fd5b6129dc8461294c565b92506129ea6020850161294c565b9150604084013590509250925092565b60008060008060808587031215612a0f578081fd5b612a188561294c565b9350612a266020860161294c565b925060408501359150606085013567ffffffffffffffff811115612a48578182fd5b8501601f81018713612a58578182fd5b612a67878235602084016128d6565b91505092959194509250565b60008060408385031215612a85578182fd5b612a8e8361294c565b91506129b660208401612963565b60008060408385031215612aae578182fd5b612ab78361294c565b946020939093013593505050565b600060208284031215612ad6578081fd5b6122b882612963565b600060208284031215612af0578081fd5b81356122b881612f94565b600060208284031215612b0c578081fd5b81516122b881612f94565b600060208284031215612b28578081fd5b813567ffffffffffffffff811115612b3e578182fd5b8201601f81018413612b4e578182fd5b611830848235602084016128d6565b600060208284031215612b6e578081fd5b5035919050565b60008060408385031215612b87578182fd5b50508035926020909101359150565b60008151808452612bae816020860160208601612ebc565b601f01601f19169290920160200192915050565b805460009060028104600180831680612bdc57607f831692505b6020808410821415612bfc57634e487b7160e01b86526022600452602486fd5b818015612c105760018114612c2157612c4e565b60ff19861689528489019650612c4e565b60008881526020902060005b86811015612c465781548b820152908501908301612c2d565b505084890196505b50505050505092915050565b60008451612c6c818460208901612ebc565b845190830190612c80818360208901612ebc565b612c8c81830186612bc2565b979650505050505050565b6000612ca38285612bc2565b8351612cb3818360208801612ebc565b01949350505050565b6001600160a01b0385811682528416602082015260408101839052608060608201819052600090612cef90830184612b96565b9695505050505050565b6020808252825182820181905260009190848201906040850190845b81811015612d3157835183529284019291840191600101612d15565b50909695505050505050565b6000602082526122b86020830184612b96565b60208082526032908201527f4552433732313a207472616e7366657220746f206e6f6e20455243373231526560408201527131b2b4bb32b91034b6b83632b6b2b73a32b960711b606082015260800190565b6020808252818101527f4f776e61626c653a2063616c6c6572206973206e6f7420746865206f776e6572604082015260600190565b60208082526031908201527f4552433732313a207472616e736665722063616c6c6572206973206e6f74206f6040820152701ddb995c881b9bdc88185c1c1c9bdd9959607a1b606082015260800190565b8281526040810160038310612e4d57634e487b7160e01b600052602160045260246000fd5b8260208301529392505050565b60008219821115612e6d57612e6d612f52565b500190565b600082612e8157612e81612f68565b500490565b6000816000190483118215151615612ea057612ea0612f52565b500290565b600082821015612eb757612eb7612f52565b500390565b60005b83811015612ed7578181015183820152602001612ebf565b838111156116c65750506000910152565b600281046001821680612efc57607f821691505b60208210811415612f1d57634e487b7160e01b600052602260045260246000fd5b50919050565b6000600019821415612f3757612f37612f52565b5060010190565b600082612f4d57612f4d612f68565b500690565b634e487b7160e01b600052601160045260246000fd5b634e487b7160e01b600052601260045260246000fd5b634e487b7160e01b600052604160045260246000fd5b6001600160e01b031981168114610c7a57600080fdfea26469706673582212209dbceb2c2953063fa52c09804fd3a38f10ee8f97d5c84055919d47b259c6209064736f6c634300080200334f776e61626c653a2063616c6c6572206973206e6f7420746865206f776e6572",
    "linkReferences": {},
    "deployedLinkReferences": {}
}